S0140000386269742D646973706C61792E7372656376
S11300000C9434000C9449000C9449000C94D500D1
S11300100C9449000C9449000C9449000C94490038
S11300200C9449000C9449000C9449000C94490028
S11300300C9449000C9449000C9449000C94490018
S11300400C9449000C9449000C9449000C94490008
S11300500C9449000C9449000C9449000C944900F8
S11300600C9449000C94490011241FBECFEFD8E032
S1130070DEBFCDBF11E0A0E0B1E0EAECF4E002C0E5
S113008005900D92A830B107D9F70E940F010C9486
S113009063020C9400008FEF84B98AB915B81BB8B9
S11300A0ECE7F0E0808180648083EAE7F0E080811F
S11300B0876880838FB780688FBFE8E6F0E080812F
S11300C081608083EBE6F0E08081806180837894B6
S11300D080E0089590917C008F70907F892B8093AD
S11300E07C0080917A00806480937A0080917A0009
S11300F086FDFCCF80917800909179000895CF938C
S1130100DF93D1E0811524E0920708F4D0E042E0C7
S113011050E06AEF7FEF20E030E0A1E0B0E015C0EE
S1130120263031054CF5CBB1FD01042E01C0EE0F94
S11301300A94EAF7CE2BCBB92F5F3F4F6F5F7F4F07
S11301404F5F5F4F2A30310561F1FC01022E02C07E
S1130150F695E7950A94E2F7E0FDE2CF2630310503
S1130160ACF4CBB1FD01042E01C0EE0F0A94EAF702
S1130170E095EC23EBB9E0CFC5B1FD01062E01C03B
S1130180EE0F0A94EAF7CE2BC5B9D6CFC5B1FD015F
S1130190062E01C0EE0F0A94EAF7E095EC23E5B9C8
S11301A0CBCF8D2FDF91CF9108951F920F920FB671
S11301B00F9211242F933F934F935F936F937F93E9
S11301C08F939F93AF93BF93EF93FF9383B12FEFDD
S11301D083ED90E3215080409040E1F700C000009F
S11301E00E94F201CB010E947F002FEF83ED90E388
S11301F0215080409040E1F700C00000FF91EF9152
S1130200BF91AF919F918F917F916F915F914F912A
S11302103F912F910F900FBE0F901F9018950E9441
S11302204B0080917C00807F816080937C00809172
S11302307A00806480937A0080917A0086FDFCCFF6
S113024080917800909179000E94980180917C00BF
S1130250807F816080937C0080917A0080648093A9
S11302607A0080917A0086FDFCCF8091780090918D
S113027079000E947F002FEF80E792E021508040B8
S11302809040E1F700C00000E1CF8F929F92AF92BF
S1130290BF92CF92DF92EF92FF92CF93DF93EC0164
S11302A0688179818A819B81611571058105910538
S11302B021F464E279ED8BE597E02DE133EF41E041
S11302C050E00E94000249015A019B01AC01A7EAD7
S11302D0B1E40E941F026B017C01ACEEB4EFA501F6
S11302E094010E942D02C60ED71EE81EF91EF7FEC9
S11302F006C081E0C81AD108E10880E8F80AC8827B
S1130300D982EA82FB82C6019F77DF91CF91FF9069
S1130310EF90DF90CF90BF90AF909F908F90089513
S11303200E944501089580E091E00E9445010895EE
S1130330A0E0B0E08093000190930101A09302013A
S1130340B093030108958F929F92AF92BF92CF9280
S1130350DF92EF92FF92CF93DF93EC016881798172
S11303608A819B81611571058105910521F464E2FF
S113037079ED8BE597E02DE133EF41E050E00E9409
S1130380000249015A019B01AC01A7EAB1E40E94B1
S11303901F026B017C01ACEEB4EFA50194010E9435
S11303A02D02C60ED71EE81EF91EF7FE06C081E018
S11303B0C81AD108E10880E8F80AC882D982EA821A
S11303C0FB82C701B6019F77DF91CF91FF90EF9039
S11303D0DF90CF90BF90AF909F908F9008950E9430
S11303E0A301089584E091E00E94A301089560931D
S11303F00401709305018093060190930701089509
S1130400052E97FB1EF400940E94170257FD07D097
S11304100E94320207FC03D04EF40C94170250954C
S11304204095309521953F4F4F4F5F4F08959095DC
S11304308095709561957F4F8F4F9F4F08950E94CF
S11304405402A59F900DB49F900DA49F800D911D03
S113045011240895B7FF0C941F020E941F02821BEF
S1130460930B0895A1E21A2EAA1BBB1BFD010DC01C
S1130470AA1FBB1FEE1FFF1FA217B307E407F50750
S113048020F0A21BB30BE40BF50B661F771F881F2C
S1130490991F1A9469F760957095809590959B01C2
S11304A0AC01BD01CF010895A29FB001B39FC0016B
S11304B0A39F700D811D1124911DB29F700D811D8C
S10D04C01124911D0895F894FFCF54
S10B04CA010000000100000024
S9030000FC
